:100000000C9456000C9475000C9475000C947500BB
:100010000C9475000C9475000C9475000C9475008C
:100020000C9475000C9475000C9475000C9475007C
:100030000C9475000C94E9010C9475000C947500F7
:100040000C9475000C9475000C9475000C9475005C
:100050000C9475000C9475000C9475000C9475004C
:100060000C9475000C9475000C9475000C9475003C
:100070000C9475000C9475000C9475000C9475002C
:100080000C9475000C9475000C94750093029D02FD
:10009000D002D702E50219034D03DE029603B30333
:1000A0009A03A403B303B303B303AE0311241FBE27
:1000B000CFEFD0E4DEBFCDBF11E0A0E0B1E0EAE2D7
:1000C000F8E000E00BBF02C007900D92A231B1072B
:1000D000D9F721E0A2E1B1E001C01D92AC31B20735
:1000E000E1F70E94C2030C9413040C940000CF9318
:1000F000DF93CDB7DEB781E00E949E000000DF9164
:10010000CF910895CF93DF93CDB7DEB784E690E02B
:100110000E94420188E30E949E0086E00E949E00A9
:100120008FE00E949E0081E00E949E008AE090E0A5
:100130000E9442010000DF91CF910895CF93DF9399
:100140001F92CDB7DEB789838BE290E02BE230E0DF
:10015000F90120812F7BFC01208388E290E0298136
:10016000FC0120838BE290E02BE230E0F90120815A
:100170002068FC01208300008BE290E02BE230E05D
:10018000F90120812F77FC01208382E090E00E941A
:10019000420100000F90DF91CF910895CF93DF933C
:1001A0001F92CDB7DEB789838BE290E02BE230E07F
:1001B000F90120812064FC01208388E290E02981FC
:1001C000FC0120838BE290E02BE230E0F9012081FA
:1001D0002068FC01208300008BE290E02BE230E0FD
:1001E000F90120812F77FC01208381E090E00E94BB
:1001F000420100000F90DF91CF910895CF93DF93DC
:1002000000D000D0CDB7DEB78A837C836B830E9499
:1002100077008A81898311C0898191E0980F998341
:100220000E942B018B819C819C012F5F3F4F3C835F
:100230002B83FC0180810E94CE008B819C81FC017C
:100240008081882349F700000F900F900F900F9046
:10025000DF91CF910895CF93DF931F92CDB7DEB793
:1002600089838981813128F4898181580E949E0087
:1002700004C0898181550E949E0000000F90DF918B
:10028000CF910895CF93DF9300D000D000D0CDB7A9
:10029000DEB79E838D831A82198213C01C821B8253
:1002A00006C000008B819C8101969C838B838B818F
:1002B0009C8187309340ACF389819A8101969A831F
:1002C000898329813A818D819E812817390734F3EA
:1002D000000026960FB6F894DEBF0FBECDBFDF91AB
:1002E000CF910895CF93DF9300D01F92CDB7DEB7A3
:1002F00089837B836A8389818A3031F48A819B81F7
:10030000BC018DE00E94720180EC90E0FC018081D4
:10031000882F90E080729927892BB1F386EC90E0CA
:100320002981FC01208380E090E00F900F900F90D6
:10033000DF91CF910895CF93DF93CDB7DEB781E8FA
:1003400090E02BE0FC01208388E890E02DE730E08E
:10035000FC01318320838FE690E022E0FC012083C2
:1003600084E890E0FC011182108280910E0190914E
:100370000F01A0911001B09111018093130190938E
:100380001401A0931501B09316018FE590E02FE5BD
:1003900030E0F90120812068FC0120830000DF911A
:1003A000CF910895CF93DF93CDB7DEB781E890E08A
:1003B000FC0110820000DF91CF910895CF93DF936D
:1003C000CDB7DEB781E0809312010000DF91CF91BD
:1003D00008951F920F9200905F000F9211240090D9
:1003E0005B000F922F933F934F935F936F937F9395
:1003F0008F939F93AF93BF93EF93FF93CF93DF932D
:10040000CDB7DEB78091130190911401A091150131
:10041000B09116010197A109B1098093130190933E
:100420001401A0931501B0931601809113019091CE
:100430001401A0911501B0911601892B8A2B8B2BE9
:1004400091F40E94DE0180910E0190910F01A09124
:100450001001B09111018093130190931401A093A6
:100460001501B09316010000DF91CF91FF91EF913C
:10047000BF91AF919F918F917F916F915F914F91BC
:100480003F912F910F9000925B000F9000925F00C0
:100490000F901F901895CF93DF9300D000D0CDB769
:1004A000DEB769837A838B839C8389819A81AB8150
:1004B000BC8180930E0190930F01A0931001B09323
:1004C000110180910E0190910F01A0911001B09146
:1004D00011018093130190931401A0931501B0931F
:1004E000160100000F900F900F900F90DF91CF91A9
:1004F0000895CF93DF93CDB7DEB780911801909127
:100500001901CC01A0E0B0E040E050E027E030E08D
:10051000841B950B2817390708F4F2C08A5B9F4F9C
:10052000FC010C940A0487E080931B0181E090E0B9
:100530009093190180931801E4C080911A018823D7
:1005400039F481E090E09093190180931801D9C0AB
:1005500080911A01813039F482E090E09093190182
:1005600080931801CEC080911A01823039F483E063
:1005700090E09093190180931801C3C080911A01F3
:10058000833039F487E090E090931901809318014B
:10059000B8C081E090E09093190180931801B1C038
:1005A00084E090E09093190180931801AAC085E03F
:1005B00090E09093190180931801A3C086E090E029
:1005C00090931901809318019CC080911A0188238F
:1005D00039F481E090E0909319018093180191C063
:1005E00080911A01823039F483E090E090931901F0
:1005F0008093180186C080911A01833039F487E016
:1006000090E090931901809318017BC080911701AD
:100610008A3049F41092170182E090E0909319011A
:10062000809318016EC0809117018F5F809317012E
:1006300068C080911A01882339F481E090E090939A
:100640001901809318015DC080911A01813039F43D
:1006500082E090E0909319018093180152C080913C
:100660001A01833039F487E090E090931901809368
:10067000180147C0809117018A3049F41092170180
:1006800083E090E090931901809318013AC0809123
:1006900017018F5F8093170134C080911A0188235E
:1006A00039F481E090E0909319018093180129C0FA
:1006B00080911A01813039F482E090E09093190121
:1006C000809318011EC080911A01823039F483E0B2
:1006D00090E0909319018093180113C080911A0142
:1006E000833039F487E090E09093190180931801EA
:1006F00008C086E090E0909319018093180101C032
:1007000000008091180190911901CC01A0E0B0E0A7
:1007100040E050E027E030E0841B950B28173907B4
:1007200000F1825B9F4FFC010C940A0487E08093E8
:100730001B011EC080911B018930B8F480911B0100
:100740008F5F80931B0111C080911B01882379F07A
:1007500080911B01815080931B0109C010921B01E5
:1007600007C0000005C0000003C0000001C0000079
:100770008BE290E020911B01FC0120830000DF91BF
:10078000CF910895CF93DF93CDB7DEB781E290E0AC
:10079000FC01108282E290E02FEFFC01208387E2CF
:1007A00090E02FEFFC01208388E290E0FC011082B2
:1007B0008AE290E02FEFFC0120838BE290E0FC01C5
:1007C00010820E94820064E670E080E090E00E9467
:1007D0004B020E949B01109219011092180180E2B5
:1007E00090E0FC0180818095837080931A010E94C3
:1007F00079020E9477008BE290E0FC018081805DAD
:100800000E94CE000000809112018823E1F3109233
:100810001201E5CFEE0FFF1F0024001C0BBE079056
:0A082000F691E02D0994F894FFCF43
:10082A000000000200000000720100000000010048
:02083A000000BC
:00000001FF
